:020000040800F2
:10000000E05B002045010008F539000821200008C8
:1000100049380008ED0D0008254E000800000000DA
:100020000000000000000000000000003143000854
:100030002915000800000000FD3E0008C945000821
:100040005F0100085F0100085F0100085F01000810
:100050005F0100085F0100085F0100085F01000800
:100060005F0100085F0100085F0100085F010008F0
:100070005F0100085F0100085F0100085F010008E0
:100080005F0100085F0100085F0100085F010008D0
:100090005F0100085F0100085F0100085F010008C0
:1000A0005F0100085F0100085F0100085F010008B0
:1000B0005F0100085F0100085F0100085F010008A0
:1000C0005F0100085F0100085F0100085F01000890
:1000D0005F010008854800085F0100082149000809
:1000E0005F0100085F0100085F0100085F01000870
:1000F0005F0100085F0100085F0100085F01000860
:100100005F0100085F0100085F0100085F0100084F
:100110005F0100085F0100085F0100085F0100083F
:100120005F0100085F0100085F0100085F0100082F
:10013000DFF80CD000F0E2FA004800478D510008CB
:10014000E05B00200648804706480047FEE7FEE7E0
:10015000FEE7FEE7FEE7FEE7FEE7FEE7FEE7FEE777
:100160008D4700083101000840EA01039B0703D0D6
:1001700009E008C9121F08C0042AFAD203E011F8E6
:10018000013B00F8013B521EF9D27047D2B201E0A8
:1001900000F8012B491EFBD270470022F6E710B58C
:1001A00013460A4604461946FFF7F0FF204610BDE5
:1001B00030B505462A460B4612F8010B13F8014BE1
:1001C00008B1A042F8D01CB1002802D06D1CF1E7A4
:1001D000284630BD421C10F8011B0029FBD1801AB3
:1001E00070472DE9FE4F804681EA0300C00F0C46A0
:1001F000009021F0004123F00045B8EB0200A94136
:1002000005D24046214690461C460B46024623F046
:100210000040104347D0270DC7F30A00C3F30A512B
:100220000290401A019040286BDAC3F3130040F4A7
:10023000801B0098924620B10023D2EB030A63EBA7
:100240000B0B01985946C0F14002504600F098F956
:1002500006460D4650465946019A00F0B0F910EB9B
:1002600008006141002487EA115284EAE7731A43C7
:1002700040D0009A62B3019A012A4FEA075215DC76
:10028000001B61EB02014FF0004202EA0752CDE988
:100290000042001C41F5801132462B4600F0B0F9B7
:1002A00003B0BDE8F08F40462146F9E7001B61EB43
:1002B0000201001C41F5801300185B412018A2F5D3
:1002C000001747EB030140EAD570B6196D4111E004
:1002D0006D084FEA360645EAC0754FEA0752001B23
:1002E00061EB0201001C41F5801149084FEA300022
:1002F0000019514132462B4603B0BDE8F04F00F0E3
:1003000070B90098012240000023D0EB020263EB99
:10031000E073009821464FEAE074B8EB000061EB0F
:100320000401E9E783F000435BE781F0004158E70F
:100330002DE9FE4F81EA030404F0004421F000415E
:1003400000944FF0000B23F0004350EA01045ED00C
:1003500052EA03045BD0C3F30A54C1F30A552C4498
:10036000A4F2F3340194A0FB0254C1F3130141F44D
:100370008011C3F3130343F4801301FB024400FB19
:10038000034E840A970A44EA815447EA8357A4FB40
:10039000076802958D0A05FB07854FEA932C04FB3D
:1003A0000C542705029D4FEA065847EA1637B5EB6D
:1003B00008056EEB070C870E920E47EA811742EA9A
:1003C0008312A7FB0201B6EB0B0164EB00042B0DBB
:1003D00043EA0C335E1844EB1C50DA465146E7FB07
:1003E0000201C5F313044FEA0B3343EA14534FEAF7
:1003F0000432019C43EA0603A4F10C040294009C1D
:10040000CDE900B400F0FCF803B0BDE8F08F0020A7
:100410000146F9E72DE9F04D81EA030404F0004BB1
:1004200021F0004514464FF0000A23F0004150EA45
:10043000050220D054EA01021DD0C5F30A57024636
:10044000C5F31303C1F31300C1F30A5640F480153A
:1004500043F48013A7EB0608101BD64608F2FD38BC
:1004600073EB050002D308F1010801E092185B412B
:10047000B8F1000F03DA00200146BDE8F08D00203E
:100480004FF48011064684460EE0171B73EB0507F8
:1004900005D3121B63EB050306434CEA010C490824
:1004A0004FEA300092185B4150EA0107EDD152EA61
:1004B000030012D082EA040083EA0501084305D054
:1004C000101BAB4106D20122002306E000224FF0B0
:1004D000004302E06FF0010253101AEB06004CEBF0
:1004E000085110EB0A0041EB0B01BDE8F04D00F0A4
:1004F00078B830B50B46014600202022012409E0DF
:1005000021FA02F59D4205D303FA02F5491B04FACC
:1005100002F52844151EA2F10102F1DC30BD2DE9DF
:10052000F05F0546002092469B4688460646814677
:1005300040241BE0284641464746224600F02FF85B
:1005400053465A46C01A914110D3114618462246C6
:1005500000F016F82D1A67EB01084F4622460120DD
:10056000002100F00DF817EB00094E41201EA4F108
:100570000104DFDC484631462A464346BDE8F09F89
:10058000202A04DB203A00FA02F100207047914053
:10059000C2F1200320FA03F3194390407047202A48
:1005A00004DB203A21FA02F00021704721FA02F31D
:1005B000D040C2F120029140084319467047202ADA
:1005C00006DBCB17203A41FA02F043EAE07306E07B
:1005D00041FA02F3D040C2F120029140084319468B
:1005E000704710B5141E73F1000408DA401C41F185
:1005F000000192185B411A4301D120F0010010BDA7
:100600002DE9F04D92469B4611B1B1FA81F202E01C
:10061000B0FA80F220329046FFF7B2FF04460F4650
:1006200040EA0A0041EA0B0153465A46084313D0F8
:10063000114653EA010019D0C8F140025046FFF7B5
:10064000AEFF05460E46504659464246FFF798FF14
:10065000084305D0012004E020463946BDE8F08D6E
:100660000020054346EAE0762C4337430A986305A9
:10067000E40AA0EB08000022FD0A44EA47540A30CD
:1006800002D500200146E9E7010510196941DDE9BD
:10069000084500196941BDE8F04DA2E7C1F30A52CF
:1006A000C1F3130140F2FF3341F480119A4202DAA0
:1006B00000200146704740F233439A42A2F233428F
:1006C00002DC5242FFF76BBFFFF75ABF30B5041E82
:1006D00071F1000404DB4FF00044404264EB01017F
:1006E000141E73F1000405DB1C464FF00043524218
:1006F00063EB0403994208BF904230BD064C074D9E
:1007000006E0E06840F0010394E8070098471034E1
:10071000AC42F6D3FFF710FD1C9500083C9500088D
:1007200070B58D1810F8014B14F0030201D110F8C8
:10073000012B231106D110F8013B03E010F8016BE7
:1007400001F8016B521EF9D1ABB110F8012B04F086
:100750000C048A1A0C2C03D0A2EB84129B1C08E018
:1007600010F8014BA2EB0422F8E712F8014B01F854
:10077000014B5B1EF9D5A942D4D3002070BD000007
:1007800082B001908DF803109DF8030030B1FFE7AF
:100790000199886840F00100886005E00199886847
:1007A00020F001008860FFE702B0704780B588B094
:1007B0004FF401700121009103F0F0FB2020C0F202
:1007C0000300079040F60000C4F2010007A901F001
:1007D00087FA4FF4004003F093FB47F6682CC0F60D
:1007E000000CDCF80000DCF80410DCF80820DCF871
:1007F0000C30DCF810C0CDF818C0059304920391BA
:10080000029042F20040C4F20100019002A900F0FF
:1008100083F800990198FFF7B3FF009A019805212A
:10082000072300F0C7F8019800F082F9FFE742F2D1
:100830000040C4F2010000F037F808B1FFE7F6E726
:1008400042F20040C4F2010000F092F9FFE742F2E8
:100850000040C4F2010000F027F808B1FFE7F6E716
:1008600008B080BD81B000900098C06C80B201B02B
:100870007047000082B001908DF8031000208DF8C1
:100880000200019800689DF80310084204D0FFE7B9
:1008900001208DF8020003E000208DF80200FFE740
:1008A0009DF8020002B0704782B0019000208DF8E0
:1008B0000300019880680007002804D5FFE70120A5
:1008C0008DF8030003E000208DF80300FFE79DF89A
:1008D000030002B07047000080B542F20040C4F24D
:1008E0000100012100F02EF9FFE742F20040C4F2BE
:1008F00001000221FFF7BEFF08B9FFE7F5E742F26A
:100900000040C4F20100FFF7ADFF40F6C271C2F231
:1009100000010880002080BD84B003900291002077
:1009200001908DF8030003984068019001984FF6FC
:10093000FF61CFF6F07108400190029908680979CB
:1009400040EA012101980843019001980399486009
:1009500003988068019001984FF2FD71CFF6F17114
:10096000084001900299C8688A681043497940EAB2
:100970004101019808430190019803998860039808
:10098000C06A0190019820F4700001900298007CE8
:10099000411E9DF8030008438DF803009DF80310E5
:1009A000019840EA0150019001980399C86204B08F
:1009B0007047000084B003908DF80B108DF80A206A
:1009C0008DF809300020019000909DF80B000A2856
:1009D00021DBFFE70398C06801909DF80B0000EB56
:1009E0004000A0F11E010720884000900099019866
:1009F000884301909DF809009DF80B1001EB41011F
:100A00001E39884000900099019808430190019890
:100A10000399C8601DE00398006901909DF80B00E0
:100A200000EB40010720884000900099019888431E
:100A300001909DF809009DF80B1001EB41018840E1
:100A4000009000990198084301900198039908616A
:100A5000FFE79DF80A00062820DCFFE70398406BBB
:100A600001909DF80A0000EB8000411F1F20884084
:100A7000009000990198884301909DF80B009DF823
:100A80000A1001EB81010539884000900099019816
:100A90000843019001980399486347E09DF80A00D4
:100AA0000C2821DCFFE70398006B01909DF80A00F9
:100AB00000EB8000A0F123011F20884000900099E6
:100AC0000198884301909DF80B009DF80A1001EBF6
:100AD00081012339884000900099019808430190D2
:100AE00001980399086320E00398C06A01909DF87B
:100AF0000A0000EB8000A0F141011F208840009017
:100B000000990198884301909DF80B009DF80A1008
:100B100001EB810141398840009000990198084318
:100B2000019001980399C862FFE7FFE704B070479E
:100B300081B000900099886840F00800886001B09A
:100B40007047000082B001908DF803109DF80300FB
:100B500030B1FFE70199886840F4A000886005E0A3
:100B60000199886820F4A0008860FFE702B0704710
:100B700081B000900099886840F00400886001B05E
:100B80007047000082B040F6CC30C2F20000009006
:100B9000FFE70098411C0091007820B1FFE7019821
:100BA00001300190F5E70198013802B0704700006C
:100BB00080B582B002208DF8060000F02BF804F01A
:100BC00083F94FF4FA6000F0DBFCFFE79DF80600C4
:100BD000411E8DF80610A8B1FFE740F63040C2F282
:100BE0000000B0F8062200F5C37149F24320C0F6B8
:100BF000000004F07FF920B9FFE701208DF807001D
:100C000004E0E3E701208DF80700FFE79DF8070007
:100C100002B080BD80B5A8B040F63040C2F20000FE
:100C200005904FF46271FFF7B8FA059849F24B311D
:100C3000C0F6000149F26822C0F60002039206F0F5
:100C400091FA0598FFF7C6FA039A01460598A0F8AD
:100C500080108230069049F2AC21C0F6000149F2C2
:100C60007823C0F60003029306F07CFA0698FFF79B
:100C7000B1FA0599A1F8020108A801908021FFF7B7
:100C80008CFA01980299039B6A46116049F2B221DD
:100C9000C0F600011A4606F065FA0198FFF79AFAC5
:100CA000059A01460198EC462023CCF8003002F565
:100CB0008272079249F24723C0F6000304F018FD40
:100CC0000798FFF787FA029A01460598A0F8841161
:100CD00000F5C370049049F28421C0F6000106F0CB
:100CE00041FA029A039B059840F25B71A0F8061244
:100CF00000F5027049F2FB21C0F6000106F032FA5D
:100D0000029A039B059800F5227049F22031C0F643
:100D1000000106F027FA029A039B059800F542703D
:100D200049F2D521C0F6000106F01CFA0499059895
:100D3000B0F8062249F2EF10C0F6000006F002FA01
:100D4000059949F20120C0F6000006F0FBF906996A
:100D500049F21F20C0F6000006F0F4F9079949F2A5
:100D60001020C0F6000006F0EDF928B080BD0000AC
:100D700041F2D031C2F20001002048808880C88052
:100D8000088140F23802C2F200020121117041F2E2
:100D9000CE31C2F20001087040F6CC71C2F20001FF
:100DA000088040F6C871C2F20001088040F6CA719E
:100DB000C2F200010880704780B584B01020012184
:100DC000029103F0EBF80120C1F20300039041F21D
:100DD0000000C4F20100019003A900F081FF019816
:100DE0000299002201F006F904B080BDFFE7FEE79A
:100DF00080B586B08DF81300039100208DF80100B6
:100E0000FFE79DF813000DF1020102F029FF8DF8B4
:100E100000009DF8000088B1FFE702F059FF9DF83F
:100E2000010001308DF801009DF80100032804DB6A
:100E3000FFE74FF0FF3005901EE0E2E7FFE7039881
:100E400002F04AFE8DF800009DF8000020B1FFE797
:100E50004FF0FF3005900FE0039802F07DFF8DF812
:100E600000009DF8000020B1FFE74FF0FF30059033
:100E700002E000200590FFE7059806B080BD000065
:100E800080B588B08DF81B000591059800788DF825
:100E90000B008DF80300059840788DF80C008DF854
:100EA0000400059880788DF80D008DF805000598F0
:100EB000C0788DF80E008DF8060005980078C043C4
:100EC0008DF8070005984078C0438DF80800059814
:100ED0008078C0438DF809000598C078C0438DF82C
:100EE0000A009DF81B008DF811008DF80F009DF889
:100EF0001B00C0438DF812008DF810009DF81B00F8
:100F00000DF1030102F080FF8DF813009DF813002E
:100F100020B1FFE74FF0FF30079002E0002007907C
:100F2000FFE7079808B080BD80B586B08DF8130044
:100F3000039103A80090009800788DF807000098AE
:100F400040788DF80800009880788DF809000098A6
:100F5000C0788DF80A009DF813000DF10701FFF726
:100F60008FFF8DF80B009DF80B0020B1FFE74FF0CD
:100F7000FF30059002E000200590FFE7059806B0DD
:100F800080BD000080B586B004908DF80F100292ED
:100F90009DF80F10029A049B602002F0FBFD8DF873
:100FA00007009DF8070020B1FFE74FF0FF300590E4
:100FB00002E000200590FFE7059806B080BD000024
:100FC00080B586B08DF8160001208DF81500002040
:100FD000ADF8100003909DF81600012805DBFFE72F
:100FE0009DF81600042804DBFFE701208DF81700A8
:100FF00088E09DF8160001388DF816009DF816104F
:1010000040F2F050C2F2000050F82100028849F28C
:10101000D941C0F6000103A806F0A4F841F2CE3091
:10102000C2F2000000780146029120B1FFE7029869
:10103000012827D038E040F6B870C2F200000078EE
:1010400041F2CE31C2F200010978884204D0FFE7B4
:1010500000208DF8150003E001208DF81500FFE752
:101060009DF81600C0EBC0015A2000EBC1016A4692
:1010700003A8106098204FF6FF724FF4784300F0F9
:10108000FBFA11E09DF81600C0EBC0015A2000EBFE
:10109000C1016A4603A8106098204FF6FF724FF412
:1010A000784300F0E9FAFFE740F6B970C2F20000B9
:1010B00000789DF81610884208D0FFE79DF81600CA
:1010C00040F6B971C2F200010870FFE740F6B8704F
:1010D000C2F20000007841F2CE31C2F2000109787C
:1010E00088420BD0FFE741F2CE30C2F20000007818
:1010F00040F6B871C2F200010870FFE700208DF8D9
:101100001700FFE79DF8170006B080BD80B584B0DA
:101110008DF80E009DF80E00012805DBFFE79DF815
:101120000E00042804DBFFE701208DF80F004DE0DE
:101130009DF80E0001388DF80E009DF80E00C0EBF2
:10114000C0025A2101EBC20100EB400C40F2140036
:10115000C2F2000000EB8C031A895B8950F82C0066
:10116000EC46CCF80000282000F086FA40F6BA7071
:10117000C2F2000000789DF80E10884222D0FFE7EE
:1011800040F6BA70C2F2000002900078C0EBC002D4
:101190005A2101EBC20100EB400C40F21400C2F2F4
:1011A000000000EB8C039A88DB8850F82C00EC469A
:1011B000CCF80000282000F05FFA02999DF80E009C
:1011C0000870FFE700208DF80F00FFE79DF80F0083
:1011D00004B080BD80B58CB049F2DD40C0F600009F
:1011E0006946086058200A2105914FF6FF72079260
:1011F0000023089300F040FA0598079A089B49F2EB
:101200000451C0F60001EC46CCF8001023210691F1
:1012100000F032FA0699079A089B49F2E440C0F6BA
:101220000000EC46CCF80000962000F025FA089863
:101230000B90FFE70B98032824D8FFE700200A90C3
:10124000FFE70A981C2818D8FFE70A98C0000B99F6
:10125000C1EBC102322101EBC20149F2C042C0F62A
:1012600000026B461A604FF6FF72002300F004FA8A
:10127000FFE70A9801300A90E3E7FFE70B98013097
:101280000B90D7E700200990FFE7099802281DD8A6
:10129000FFE70998C0EBC0025A2101EBC20100EB45
:1012A000400C40F21400C2F2000000EB8C039A885C
:1012B000DB8850F82C00EC46CCF80000282000F029
:1012C000DBF9FFE7099801300990DEE748F60810DE
:1012D000C0F60000694608600520029050211E22D9
:1012E00001921D2301F06AFB019B029847F6E82159
:1012F000C0F600016A4611608C211A4601F05EFBBF
:10130000019B029848F2F811C0F600016A4611608C
:10131000C3211A4601F052FB029849F2F241C0F68D
:1013200000016A461160F0214FF6FF7203921F23FD
:10133000049300F0A1F90298039A049B49F2FB413F
:10134000C0F60001EC46CCF800104FF4877100F0B5
:1013500093F90298039A049B49F2E941C0F600010F
:10136000EC46CCF800104FF4967100F085F90CB003
:1013700080BD000080B582B08DF807004FF480700A
:10138000012102F00BFE4FF4423000909DF807005F
:10139000012804D1FFE710208DF8030003E00420AA
:1013A0008DF80300FFE742F20000C4F20100694635
:1013B00000F096FC02B080BD80B588B0002004909B
:1013C0008DF81C00069001200390FFF7D3FF039ACD
:1013D00042F20000C4F2010001904FF4006102915A
:1013E00000F008FE01980299049A00F003FE142010
:1013F00000F0C6F801980299039A00F0FBFD0498EA
:10140000FFF7B8FFFFE742F20000C4F201004FF41B
:10141000006100F0A7FD012801D1FFE7F3E7FFE736
:1014200042F20000C4F201004FF4006100F09AFDA6
:1014300008B9FFE7F4E700208DF81700FFE79DF8F3
:10144000170027284ADCFFE7FFE742F20000C4F25A
:1014500001004FF4006100F085FD012801D1FFE794
:10146000F3E7FFE742F20000C4F201004FF400612D
:1014700000F078FD08B9FFE7F4E71E2000F0A8F8B7
:1014800042F20000C4F201004FF4006100F06AFD76
:1014900001280ED1FFE79DF81700072121EA00027D
:1014A000012101FA02F3C20806A9885C1843885496
:1014B0000DE09DF81700072121EA0002012101FA41
:1014C00002F3C20806A9885C98438854FFE7FFE747
:1014D0009DF8170001308DF81700B0E79DF81C004B
:1014E0009DF818109DF819C09DF81A309DF81B2022
:1014F00061441944114488420ED1FFE79DF8180059
:1015000041F2DA31C2F2000108709DF81A00487009
:101510000120ADF81E0003E00020ADF81E00FFE73B
:10152000BDF81E0008B080BD7047000082B0019079
:101530000020ADF80200FFE70198411E019170B153
:10154000FFE742F6E060ADF80200FFE7BDF80200F9
:10155000411EADF8021008B1FFE7F7E7ECE702B073
:101560007047000080B541F64010C0F2010003F062
:1015700001F8012802D1FFE7FFE7FEE780BD000088
:1015800082B0019041F20440C2F200000068009075
:10159000FFE741F20440C2F2000000680099019A9E
:1015A0001144884201D2FFE7F3E702B07047000020
:1015B00080B582B00190FFE70198411E019128B1EA
:1015C000FFE74FF47A7000F003F8F5E702B080BD52
:1015D00081B00090FFE70098411E0091002849D09B
:1015E000FFE700BF00BF00BF00BF00BF00BF00BFDC
:1015F00000BF00BF00BF00BF00BF00BF00BF00BFF3
:1016000000BF00BF00BF00BF00BF00BF00BF00BFE2
:1016100000BF00BF00BF00BF00BF00BF00BF00BFD2
:1016200000BF00BF00BF00BF00BF00BF00BF00BFC2
:1016300000BF00BF00BF00BF00BF00BF00BF00BFB2
:1016400000BF00BF00BF00BF00BF00BF00BF00BFA2
:1016500000BF00BF00BF00BF00BF00BF00BF00BF92
:1016600000BF00BF00BF00BF00BF00BF00BF00BF82
:1016700000BFB0E701B0704710B58AB0DDF830C0E8
:1016800009900891ADF81E20ADF81C30002006909E
:10169000FFE70C980078002800F0A280FFE70C9884
:1016A0000078A12854DBFFE700200690FFE70698AA
:1016B000059000F0FFFA01460598884244D2FFE702
:1016C0000998EC2806D3FFE700200990089810300D
:1016D0000890FFE70C980078069A40F29951C2F200
:1016E000000111F81210884229D1FFE70C984078C8
:1016F000069A40F29951C2F2000101EB4201497889
:1017000088421CD1FFE709980899BDF81E20BDF852
:101710001C30DDF818E040F2390CC2F2000C0CEB82
:101720004E1CEE461024CEF80840CEF80440CEF809
:1017300000C003F055FF09981030099004E0FFE75E
:10174000069801300690B2E70C9802300C9046E003
:101750000998E72806D3FFE7002009900898103081
:101760000890FFE700200690FFE706980490FFF737
:1017700009FA0146049888422DD2FFE70C980078B8
:10178000069A40F6CC31C2F20001895C88421DD134
:10179000FFE709980899BDF81E20BDF81C30DDF858
:1017A00018E040F2FC5CC2F2000C0CEB0E1CEE46A2
:1017B0000824CEF808401024CEF80440CEF800C02B
:1017C00003F00EFF09980830099004E0FFE706983F
:1017D00001300690C9E70C9801300C90FFE758E7FC
:1017E0000AB010BD80B58EB048200121079102F0EB
:1017F000D5FB18208DF837004FF48060ADF8340029
:1018000003208DF8360040F60040C4F2010001903C
:101810000DA9029100F064FA0198029904228DF852
:1018200037204FF40062ADF8342000F059FA0299E5
:1018300010208DF8370040200490ADF8340041F6B8
:101840000000C4F20100039000F04AFA03980499E2
:1018500000F0C6FB07994FF4802002F083FB4FF4A1
:10186000E130099000200590ADF830000C21ADF872
:101870002E10ADF82C00ADF82A00ADF8280044F683
:101880000000C4F20000069009A903F0CDF9069803
:10189000079A40F2255103F07DF90698079A40F225
:1018A000244103F077F90598079927228DF8202025
:1018B0008DF823108DF821008DF8220008A802F081
:1018C0009BF80698079903F0D5F80EB080BD00008C
:1018D00080B586B004900391ADF80A2041F20C4027
:1018E000C2F2000001904FF4FA61FEF756FC019934
:1018F0000020A1F8D007049803F0B0FA039820B9AB
:10190000FFE700208DF8170013E00399BDF80A20C7
:1019100041F20C40C2F2000000F0B0F820B9FFE73D
:1019200001208DF8170004E0FFE700208DF8170074
:10193000FFE79DF8170006B080BD000082B001905F
:101940008DF803109DF8030050B1FFE7019A4FF0A6
:10195000204151F8220040F0010041F822000CE043
:10196000019A4FF0204151F822004FF6FE73C0F269
:101970000F03184041F82200FFE702B07047000053
:1019800080B582B00190019900910A684868D1F849
:1019900008C0CB6840EA0C0018430B6918434B6938
:1019A00018438B691843CB6918430B6A18434B6A79
:1019B00018438B6A1843CB6A1843096B08434FF0EE
:1019C000204141F822000198806808280BD1FFE7E8
:1019D000019802684FF0204151F8220040F0400089
:1019E00041F82200FFE701980268416B0868D1F8CE
:1019F00004E0D1F808C0CB6840EA0E1040EA0C20A1
:101A000040EA03400B6940EA03504B6940EA036037
:101A1000896908430421CAF2000141F822000198B3
:101A2000C06AB0F5804F1BD1FFE701980268816B57
:101A30000868D1F804E0D1F808C00B6940EA0E103C
:101A400040EA0C2040EA03504B6940EA0360896990
:101A5000084340F20411CAF2000141F822000AE0F2
:101A60000198026840F20411CAF200016FF0704060
:101A700041F82200FFE702B080BD000080B584B0CD
:101A800002900191ADF80220FFE702980199FEF75C
:101A90008FFB80B9FFE7BDF802000138ADF8020006
:101AA000BDF8020018B9FFE70020039009E001200B
:101AB000FFF766FDE9E702980199FEF779FB0390CD
:101AC000FFE7039804B080BD82B08DF807009DF851
:101AD00007000146009120B1FFE70098012818D0C7
:101AE00040E040F23800C2F200000078022808DC32
:101AF000FFE740F23801C2F20001087801300870B7
:101B000006E040F23801C2F2000101200870FFE750
:101B100028E040F23800C2F20000017840F2F050B4
:101B2000C2F2000000EB810050F8040C008842F281
:101B30000E71884215DCFFE740F23800C2F2000067
:101B40000078411E40F21000C2F20000425C40F2F8
:101B5000F050C2F2000050F82110088810440880AC
:101B6000FFE7FFE702B0704780B584B08DF80F0043
:101B7000002002906A464FF6FF7111604221F02268
:101B8000DA2300F0D7FC9DF80F00014601910128EF
:101B900008D0FFE70198022816D0FFE70198032834
:101BA0001DD028E040F20C00C2F20000008840F690
:101BB000CC71C2F2000109884843400041F208415B
:101BC000C2F20001086016E040F6C870C2F20000E0
:101BD000008841F20841C2F2000108600BE040F6C3
:101BE000CA70C2F200000088400041F20841C2F20F
:101BF00000010860FFE749F2C240C0F600006946F4
:101C00000860182072214FF6FF724FF47843FFF7F7
:101C100033FD002004B080BD82B08DF807009DF830
:101C200007000146009120B1FFE70098012818D075
:101C30003EE040F23800C2F200000078022808DBE3
:101C4000FFE740F23801C2F200010878013808705D
:101C500006E040F23801C2F2000103200870FFE7FD
:101C600026E040F23800C2F20000017840F2F05065
:101C7000C2F2000000EB810050F8040C008801283B
:101C800015DBFFE740F23800C2F200000078411E89
:101C900040F21000C2F20000425C40F2F050C2F28A
:101CA000000050F821100888801A0880FFE7FFE73D
:101CB00002B0704782B040F29950C2F2000000902A
:101CC000FFE70098411C0091007820B1FFE70198E0
:101CD00001300190F5E70198400802B0704700001C
:101CE00088B0079006910020059004900390029020
:101CF000019000900698C07800F00F0005900698BB
:101D0000C078C006002806D5FFE7069881780598B8
:101D100008430590FFE70698007800284BD0FFE7BE
:101D200007980068019000200390FFE703980728B8
:101D30003DD8FFE70399012088400290069800886B
:101D40000299084004900498029988422AD1FFE73A
:101D500003988000029002990F208840009000991B
:101D60000198884301900598029900FA01F10198C1
:101D7000084301900698C078282806D1FFE7039908
:101D800001208840079948610BE00698C0784828F0
:101D900006D1FFE703990120884007990861FFE712
:101DA000FFE7FFE7FFE7039801300390BEE70198E4
:101DB00007990860FFE706980088B0F5807F50DB40
:101DC000FFE707984068019000200390FFE7039821
:101DD000072842D8FFE7039800F108010120884056
:101DE000029006980088029908400490049802998D
:101DF00088422DD1FFE703988000029002990F20BE
:101E000088400090009901988843019005980299B4
:101E100000FA01F10198084301900698C07828283B
:101E200008D1FFE7039800F10801012088400799D5
:101E30004861FFE70698C078482808D1FFE7039873
:101E400000F108010120884007990861FFE7FFE7DA
:101E5000FFE7039801300390B9E7019807994860BC
:101E6000FFE708B07047000086B005908DF81310AA
:101E7000002003900290019000909DF8170000064A
:101E8000002806D5FFE71C20C4F20100006801907D
:101E900005E00420C4F2010000680190FFE7059806
:101EA000C0F303400090BDF814000390059800F4BF
:101EB0004010B0F5401F0CD1FFE7019820F0706092
:101EC00001900421C4F20101086820F070600860EC
:101ED00023E09DF81600C00600280DD5FFE7009905
:101EE000032088400290029901988843019001984C
:101EF00040F0706001900FE00398059A6FF00F01B9
:101F000001EA524100FA01F10198884301900198D9
:101F100040F070600190FFE7FFE79DF8130060B1AB
:101F2000FFE70398059A6FF00F0101EA524100FAAA
:101F300001F1019808430190FFE79DF817000006A2
:101F4000002806D5FFE701981C21C4F201010860B2
:101F500005E001980421C4F201010860FFE706B022
:101F60007047000082B00190ADF8021000208DF89B
:101F7000010001988068BDF80210084204D0FFE714
:101F800001208DF8010003E000208DF80100FFE73B
:101F90009DF8010002B0704782B00190ADF80210C8
:101FA00000208DF801000198C068BDF802100842B9
:101FB00004D0FFE701208DF8010003E000208DF838
:101FC0000100FFE79DF8010002B0704782B0019068
:101FD000ADF80210BDF802000199486102B07047E7
:101FE00082B00190ADF80210BDF8020001990861BD
:101FF00002B0704782B00190ADF802108DF8012058
:102000009DF8010028B1FFE7BDF8020001990861C1
:1020100004E0BDF8020001994861FFE702B0704793
:10202000FFE7FEE780B582B001210191084601F08B
:10203000B5FF019940F20020C0F23000FFF714FF15
:1020400002B080BD80B582B0ADF80400BDF80400D8
:1020500038B1FFE740F20A01C2F200010120088016
:10206000FFE740F20A00C2F200000088002868D0B2
:10207000FFE740F60000C4F201000121FFF772FF04
:1020800001281CD0FFE741F20000C4F2010010213A
:10209000FFF768FF98B1FFE741F20000C4F20100CA
:1020A0002021FFF75FFF50B1FFE741F20000C4F2CB
:1020B00001004021FFF756FF002842D1FFE70A2028
:1020C000FFF75EFA40F20A01C2F200010020088028
:1020D00040F60000C4F201000121FFF743FF012890
:1020E00004D1FFE701208DF807005DE041F2000018
:1020F000C4F201001021FFF735FF20B9FFE70220ED
:102100008DF8070050E041F20000C4F201002021E8
:10211000FFF728FF20B9FFE703208DF8070043E011
:1021200041F20000C4F201004021FFF71BFF20B97B
:10213000FFE704208DF8070036E0FFE7FFE7FFE741
:102140002EE040F60000C4F201000121FFF70AFF73
:1021500028BBFFE741F20000C4F201001021FFF7A5
:1021600001FF01281BD1FFE741F20000C4F201008A
:102170002021FFF7F7FE012811D1FFE741F200000F
:10218000C4F201004021FFF7EDFE012807D1FFE76F
:1021900040F20A01C2F2000101200880FFE7FFE7D8
:1021A00000208DF80700FFE79DF8070002B080BD12
:1021B00080B582B01420012101F0F0FE0120C0F2B0
:1021C0000340019040F60000C4F2010001A9009113
:1021D000FFF786FD00997020ADF8040041F2000081
:1021E000C4F20100FFF77CFD02B080BD80B584B071
:1021F00000208DF80F008DF80E000120FFF722FF60
:102200008DF80F009DF80F00A8B1FFE741F20040E4
:10221000C2F20000008870B9FFE79DF80F0041F29C
:10222000E831C2F20001088041F20041C2F200012F
:1022300001200880FFE79DF80F00C0B1FFE741F2E1
:102240000040C2F200000088012810DBFFE741F2E5
:102250000040C2F200000088142808DCFFE741F2C9
:102260000041C2F20001088801300880FFE79DF8B4
:102270000F00002837D1FFE741F20040C2F2000012
:10228000008801282FDBFFE741F20040C2F2000086
:102290000088132827DCFFE741F2E830C2F2000093
:1022A0000088013801460291032814D80299DFE81A
:1022B00001F002060A0E01208DF80E000CE003204A
:1022C0008DF80E0008E005208DF80E0004E00720D0
:1022D0008DF80E0000E0FFE741F20041C2F200017C
:1022E0000020088033E09DF80F0078BBFFE741F243
:1022F0000040C2F200000088142827DBFFE741F20B
:10230000E830C2F20000008801380146019103283C
:1023100014D80199DFE801F002060A0E02208DF8B8
:102320000E000CE004208DF80E0008E006208DF869
:102330000E0004E008208DF80E0000E0FFE741F2F7
:102340000041C2F2000100200880FFE7FFE79DF88E
:102350000E0004B080BD000080B584B0ADF80E0062
:1023600000210091029141F2F030C2F20000028897
:1023700001924288019850430190084600F0E2FA29
:1023800000F078FB00980290FFE7029801998842DC
:102390000CD2FFE7BDF80E0040F60001C6F6004182
:1023A0000880FFE7029801300290EEE704B080BD9C
:1023B00080B540F60040C4F201000121FFF710FE95
:1023C00080BD000080B582B08DF807009DF8070041
:1023D000C0BBFFE741F2F030C2F200000021817182
:1023E000F02101804FF4A0714180808849F2413191
:1023F00088420AD0FFE741F2F030C2F20000808844
:1024000046F6040188421CD1FFE741F2F030C2F2E7
:1024100000002C21C1712A2101722B214172808878
:1024200046F6040188420BD1FFE741F2F031C2F2D7
:1024300000014FF4A07008804FF4F0704880FFE76F
:10244000FFE71CE041F2F030C2F20000012181718F
:102450004FF4A0710180F0214180808849F2413120
:1024600088420BD1FFE741F2F031C2F200012C208B
:10247000C8712A2008722B204872FFE7FFE700206E
:1024800000F030F902B080BD80B582B0ADF8060032
:10249000ADF80410ADF80220BDF80600BDF8041038
:1024A00000F050FA00F0E6FABDF8020040F6000134
:1024B000C6F60041088002B080BD000080B5A0B023
:1024C0004FF480700121029101F030FD02980390D9
:1024D000002004900F210591069007900890099024
:1024E0000A900B9003210C910D900E900F9010907C
:1024F000062101911191129008211391102114913C
:10250000159017901890169019901B901D904FF4ED
:1025100080501A904FF480401C9003A81E900AA887
:102520001F9011A8FFF72CFA01980299FFF706FAFD
:1025300020B080BD80B584B084460698ADF80EC04A
:10254000ADF80C10ADF80A20ADF80830ADF8060073
:102550000020ADF80000BDF80A00BDF80E10401ACA
:102560000130ADF80000BDF80C00ADF80400FFE745
:10257000BDF80400BDF80810884228DCFFE7BDF86C
:102580000E00BDF8041000F0DDF900F073FA002031
:10259000ADF80200FFE7BDF80200BDF80010884268
:1025A0000EDAFFE7BDF8060040F60001C6F600416E
:1025B0000880FFE7BDF802000130ADF80200EAE74D
:1025C000FFE7BDF804000130ADF80400D0E704B027
:1025D00080BD000080B588B001210491084601F05B
:1025E000DDFC04994FF4B47001F0D8FC049810217C
:1025F00002918DF81F10032101918DF81E10ADF886
:102600001C0040F60040C4F2010007A90691FFF744
:1026100067FB019806998DF81E0018208DF81F00A1
:102620004CF20370ADF81C0041F20040C4F201000E
:102630000390FFF755FB06994FF68070ADF81C002C
:1026400041F60000C4F20100FFF74AFB029A03982A
:102650000699ADF81C20FFF743FB0398069920224A
:10266000ADF81C20FFF73CFB06994FF48050ADF805
:102670001C0042F20000C4F201000590FFF730FB9D
:10268000049A05980699ADF81C20FFF729FB08B0BD
:1026900080BD000080B5FFF79DFFFFF70FFF00F042
:1026A0000BFAFFF785FE0020FFF78CFE4FF6FF7058
:1026B000FFF752FE80BD000040F60000C6F6004065
:1026C0000088704780B582B08DF807009DF807003C
:1026D00000F0C4F90520FEF77BFFFFF7EDFF02B025
:1026E00080BD000080B586B08DF817000020ADF8E1
:1026F00014008DF8130041F2F030C2F2000080792E
:10270000012838D1FFE741F2F030C2F200008088A2
:1027100046F6040188422ED0FFE79DF817000146D7
:102720000391072826D80399DFE801F004080C106C
:1027300014181C2006208DF817001BE007208DF8C8
:10274000170017E004208DF8170013E005208DF81E
:1027500017000FE001208DF817000BE000208DF826
:10276000170007E003208DF8170003E002208DF822
:102770001700FFE7FFE741F2F030C2F20000808867
:1027800049F2413188420BD0FFE741F2F030C2F20A
:102790000000808846F60401884240F0D080FFE7C0
:1027A0009DF8170001460291072838D80299DFE802
:1027B00001F004050C131A21282F30E0BDF8140095
:1027C00040F08000ADF8140029E0BDF8140040F09E
:1027D0004000ADF8140022E0BDF8140040F0C00045
:1027E000ADF814001BE0BDF8140040F02000ADF877
:1027F000140014E0BDF8140040F06000ADF81400BF
:102800000DE0BDF8140040F0A000ADF8140006E0A3
:10281000BDF8140040F0E000ADF81400FFE73620EA
:102820008DF81300BDF8140040F00800ADF8140056
:1028300041F2F030C2F20000808846F6040188427E
:1028400007D1FFE7BDF8140040F00200ADF8140016
:10285000FFE79DF81300BDF8141000F017F9BDF85C
:1028600014008006002808D4FFE741F2F030C2F2DD
:1028700000008079012817D1FFE741F2F031C2F260
:1028800000010888498888420DDAFFE741F2F031FB
:10289000C2F200010888ADF8100048880880BDF831
:1028A00010004880FFE716E041F2F031C2F200016B
:1028B0000888498888420DDDFFE741F2F031C2F215
:1028C00000010888ADF8100048880880BDF81000A5
:1028D0004880FFE7FFE741F2F030C2F200000190CC
:1028E000007A00F0BBF80020009000F0ABF80098F0
:1028F00000F0A8F8019800880138C0F30F2000F01C
:10290000A1F8019800880138C0B200F09BF8019846
:10291000407A00F0A3F8009800F094F8009800F0D6
:1029200091F8019840880138C0F30F2000F08AF830
:10293000019840880138C0B200F084F8FFE706B083
:1029400080BD000080B582B0ADF80600ADF804107F
:1029500041F2F030C2F20000808849F241318842F1
:1029600029D1FFE741F2F030C2F200000090007A76
:1029700000F074F89DF8070000F064F89DF8060078
:1029800000F060F8002000F05DF8F02000F05AF848
:102990000098407A00F062F89DF8050000F052F8C7
:1029A0009DF8040000F04EF8012000F04BF84020A4
:1029B00000F048F8FFE702B080BD000080B588B0A5
:1029C000DDF828C00790069105920493002000903E
:1029D00006980290FFE702980499069A11448842EB
:1029E0002EDAFFE707980390FFE703980599079A07
:1029F000114488421FDAFFE70A980099405A40BA0A
:102A000001900398EF280EDCFFE70298B0F5A07F55
:102A100009DAFFE7BDF80C00BDF80810BDF8042086
:102A2000FFF732FDFFE7009802300090FFE70398C0
:102A300001300390D9E7FFE7029801300290CAE71E
:102A400008B080BD81B0ADF80200BDF8020040F6CC
:102A50000001C6F60041088001B0704781B0ADF8B2
:102A60000200BDF8020040F2FE71C6F60041088087
:102A700001B0704741F2F030C2F20000C07940F27C
:102A8000FE71C6F6004108807047000081B08DF8E5
:102A90000300ADF800109DF8030040F2FE71C6F689
:102AA00000410880BDF8000040F60001C6F6004174
:102AB000088001B07047000080B590B032200E90C1
:102AC000FEF734FD00200F900121FFF7DFFF0E9885
:102AD000FEF72CFD0F98FFF7F5FD014641F2F030AF
:102AE000C2F2000081808088FF2813DBFFE741F2FB
:102AF000F030C2F2000080884FF6FF71884209D0A2
:102B0000FFE741F2F030C2F200008088B0F5134FC9
:102B100028D1FFE7D320FFF7A1FFFFF7CDFDFFF797
:102B2000CBFDFFF7C9FD41F2F031C2F200010D917A
:102B30008880888800028880FFF7BEFD02460D98D5
:102B4000818811438180808849F24131884208D0D0
:102B5000FFE741F2F031C2F2000149F241308880D2
:102B6000FFE7FFE741F2F030C2F20000808849F24F
:102B70004131884240F02281FFE7CF20FFF76EFF0E
:102B800000200B90FFF75EFFC1200190FFF75AFF76
:102B900030200290FFF756FFED20FFF75FFF642023
:102BA000FFF750FF0320FFF74DFF1220FFF74AFF0A
:102BB0008120FFF747FFE820FFF750FF8520FFF750
:102BC00041FF10200590FFF73DFF7A20FFF73AFF05
:102BD000CB20FFF743FF3920FFF734FF2C20FFF70E
:102BE00031FF0B98FFF72EFF3420FFF72BFF022059
:102BF000FFF728FFF720FFF731FF2020FFF722FF24
:102C0000EA20FFF72BFF0B98FFF71CFF0B98FFF74D
:102C100019FFC020FFF722FF1B20FFF713FF0198C9
:102C2000FFF71CFF01200890FFF70CFFC520FFF7FE
:102C300015FF0298FFF706FF0298FFF703FFC72072
:102C4000FFF70CFFB720FFF7FDFE3620FFF706FF6A
:102C50004820FFF7F7FE3A20FFF700FF5520FFF767
:102C6000F1FEB120FFF7FAFE0B98FFF7EBFE1A20FA
:102C7000FFF7E8FEB620FFF7F1FE0A200490FFF709
:102C8000E1FEA220FFF7DEFEF220FFF7E7FE0B9841
:102C9000FFF7D8FE2620FFF7E1FE0898FFF7D2FEE7
:102CA000E020FFF7DBFE0F200690FFF7CBFE2A2087
:102CB0000A90FFF7C7FE2820FFF7C4FE0820039004
:102CC000FFF7C0FE0E20FFF7BDFE0398FFF7BAFE28
:102CD0005420FFF7B7FEA920FFF7B4FE4320FFF70B
:102CE000B1FE0498FFF7AEFE0698FFF7ABFE0B9817
:102CF000FFF7A8FE0B98FFF7A5FE0B98FFF7A2FEC3
:102D00000B98FFF79FFEE120FFF7A8FE0B98FFF757
:102D100099FE1520FFF796FE1720FFF793FE072078
:102D2000FFF790FE11200C90FFF78CFE0620FFF7B6
:102D300089FE2B200790FFF785FE5620FFF782FEC5
:102D40003C20FFF77FFE0520FFF77CFE0598FFF78C
:102D500079FE0698FFF776FE3F200990FFF772FE96
:102D60000998FFF76FFE0698FFF76CFE0798FFF7CC
:102D700075FE0B98FFF766FE0B98FFF763FE089849
:102D8000FFF760FE0998FFF75DFE0A98FFF766FE01
:102D90000B98FFF757FE0B98FFF754FE0B98FFF7C1
:102DA00051FEEF20FFF74EFE0C98FFF757FE7820FC
:102DB000FEF7BCFB2920FFF751FEFFE710B080BDF6
:102DC00080B584B040200121029101F0E7F83C2059
:102DD000C1F20300039041F60000C4F2010001902B
:102DE00003A9FEF77DFF0198029A0421FFF702F97B
:102DF0000198029A41F2FA33C2F2000300211970DD
:102E00000821FFF7F7F80198029A1021FFF7F2F86E
:102E10000198029A2021FFF7EDF804B080BD000070
:102E200080B582B0FFE740F6BB71C2F200015220CC
:102E3000FDF7DEFFA0B1FFE749F2AE40C0F60000AB
:102E400069460860322050214FF6FF721F23FEF7BB
:102E500013FC49F26D40C0F6000004F073F911E074
:102E600040F6BB70C2F20000017842788378C078E7
:102E7000EC46CCF8000049F29540C0F6000004F0A2
:102E800061F900E0CFE749F28140C0F6000004F0AC
:102E900059F940F6BB70C2F2000040F20402C2F2DF
:102EA00000021021FEF76EF8B8B9FFE740F20E00FD
:102EB000C2F2000001881120FEF736F860B9FFE782
:102EC00040F20E00C2F20000018849F26240C0F6F2
:102ED000000004F037F901E000E0FFE702B080BD38
:102EE00080B582B0FFE740F6BB71C2F2000152200C
:102EF000FDF77EFF38B1FFE749F26D40C0F60000F4
:102F000004F020F911E040F6BB70C2F20000017835
:102F100042788378C078EC46CCF8000049F29540BE
:102F2000C0F6000004F00EF900E0DCE749F2814051
:102F3000C0F6000004F006F940F6BB70C2F20000D3
:102F400040F20402C2F200021021FEF71BF818BB87
:102F5000FFE740F20E00C2F20000008841F2D031DB
:102F6000C2F20001C988411A1120FDF7DDFF90B9B6
:102F7000FFE740F20E00C2F20000008841F2D031BB
:102F8000C2F20001C988411A49F26240C0F600004D
:102F900004F0D8F8FFE700E0FFE702B080BD0000D2
:102FA00080B588B007908DF81B100592052004218C
:102FB00000F050F801200021029100F0A9F90A2048
:102FC000802100F08DF902980390FFE703989DF8A7
:102FD0001B1088420BD2FFE707980399415C092038
:102FE00000F096F9FFE7039801300390EEE7012027
:102FF000032100F08DF948F2A060C0F201000390B7
:10300000FFE7052000F04AF98DF813000398013816
:103010000390FFE703990020019049B1FFE79DF875
:10302000130000F00401012080EA91000190FFE705
:103030000198C0070028E4D1FFE7222000F02EF914
:1030400005990870212000F029F90599487008B009
:1030500080BD000080B582B08DF807008DF80610A5
:103060009DF8070000F01AF98DF805009DF807009B
:103070009DF805109DF80620914300F049F902B033
:1030800080BD000080B58CB0DDF838C08DF82F0011
:103090000A918DF827200893FE208DF81700002054
:1030A0008DF816008DF815009DF82F00014604914B
:1030B0000C280BD0FFE704980E280ED1FFE7122052
:1030C0008DF8160010208DF8150006E077208DF899
:1030D000160030208DF81500FFE79DF8160040F02F
:1030E0008001022000F014F9042080210291FFF7F2
:1030F000B1FF01200021039100F00AF902990A2092
:1031000000F0EEF803980690FFE706989DF8271068
:1031100088420BD2FFE70A980699415C092000F02B
:10312000F7F8FFE7069801300690EEE79DF82F10BC
:10313000012000F0EDF89DF82F000C2805D1FFE7E5
:103140000D20802100F0CCF8FFE749F2E030C0F21A
:1031500004000690FFE7042000F0A0F88DF81E00A0
:10316000069801380690FFE706990020019089B182
:10317000FFE79DF81E100020C907019051B9FFE735
:103180009DF81E009DF815100840B0FA80F0400927
:103190000190FFE70198C0070028DCD1FFE70D2070
:1031A0008021FFF757FF0698002867D0FFE7062029
:1031B00000F074F810F01B0F5BD1FFE700208DF8D2
:1031C00017009DF81E009DF816100840C00720B19A
:1031D000FFE7FF208DF81700FFE79DF82F000C2870
:1031E00046D1FFE70A2000F059F88DF81E000C20A8
:1031F00000F054F800F007008DF81F009DF81F0044
:1032000050B1FFE79DF81E109DF81F0000EBC100B4
:1032100008380E99088005E09DF81E00C0000E9940
:103220000880FFE79DF81E0020B9FFE701208DF818
:103230001E00FFE79DF81E00132804DBFFE71220A5
:103240008DF81E00FFE700200690FFE706989DF826
:103250001E1088420BD2FFE7092000F01FF80899E2
:10326000069A8854FFE7069801300690EEE7FFE7DC
:1032700003E0FE208DF81700FFE7FFE70C20802118
:1032800000F02EF80120002100F042F89DF8170010
:103290000CB080BD80B500F0E9FF80BD80B582B084
:1032A0008DF807009DF80710802040EA41008DF856
:1032B000060048F29011C4F223210091002008601A
:1032C0009DF8060001F00CF901F0CAF800998DF89C
:1032D0000500012008609DF8050002B080BD0000D7
:1032E00080B582B08DF807008DF806109DF80700B4
:1032F000FFF7D4FF8DF805009DF807009DF8051035
:103300009DF80620114300F003F802B080BD0000D4
:1033100080B582B08DF807008DF806109DF8071073
:103320007E2000EA41008DF8050048F29011C4F2B9
:1033300023210091002008609DF8050001F0D0F8DD
:103340009DF8060001F0CCF800990120086002B059
:1033500080BD000084B00390029100200190FFE73F
:103360000298C11700EB516101F08001401A8DF8FD
:1033700003000298C11700EB5160C011029002983F
:10338000012807DBFFE79DF8030040F080008DF87F
:103390000300FFE79DF803000399019A531C019372
:1033A0008854FFE702980028DADCFFE7019804B0B0
:1033B0007047000081B000900098013000900098A4
:1033C0007F2804DCFFE70098013000901AE00098A5
:1033D000B0F5804F04DAFFE700980230009010E06B
:1033E00000984FF6FE71C0F21F01884204DCFFE72F
:1033F00000980330009003E0009804300090FFE74D
:10340000FFE7FFE7009801B07047000080B58CB07F
:103410000B900A9109920B98089000200790069053
:1034200005904FF0FF300490099800F0E7F8059000
:10343000FFF7C0FF0A99884204DDFFE76FF0010043
:103440000490D8E000208DF81C009DF81C0001219C
:1034500061F31F108DF81C009DF81C1008A803F0E4
:103460001DFE08980599FFF775FF01460898084466
:1034700008900998007A04280DD1FFE749F20D5110
:10348000C0F6000108A8039003F0EEFD03980421A4
:1034900003F004FE0CE049F21251C0F6000108A846
:1034A000029003F0E1FD0298032103F0F7FDFFE72E
:1034B00000208DF818000998817E9DF8180001F011
:1034C000010100F0FD0040EA41008DF81800099864
:1034D000C17E002918BF01219DF8180000F0FB00F3
:1034E00040EA81008DF818009DF818008008C00798
:1034F000D8B1FFE7099890F83D109DF8180001F049
:10350000030100F0E70040EAC1008DF818000998B7
:1035100090F83C109DF8180001F0010100F0DF0068
:1035200040EA41108DF81800FFE70998006C20B9B7
:10353000FFE70998806C38B1FFE79DF8180040F06C
:1035400080008DF81800FFE70998C06C20B9FFE7EC
:103550000998406D38B1FFE79DF8180040F0400031
:103560008DF81800FFE79DF8181008A8019003F0E7
:1035700095FD01980999098B03F0A0FD0198099B1D
:10358000D9681A695B6903F0B3FD0998C07E80B100
:10359000FFE70998416A826AC36A08A8009003F0AD
:1035A000A7FD0098099B196B5A6B9B6B03F0A0FD5C
:1035B000FFE79DF818100020B0EBD11F08D0FFE7FF
:1035C0000998016C426C836C08A803F091FDFFE739
:1035D0009DF818008009C00740B1FFE70998C16C49
:1035E000026D436D08A803F083FDFFE708980B996F
:1035F000401A0490FFE704980CB080BD80B584B0F9
:103600000390002002900398007A032803D1FFE77B
:103610000C20029008E00398007A042803D1FFE709
:103620000A200290FFE7FFE7039AD0681169526908
:1036300000F0F4F802990844023002900398C07E2A
:10364000A8B1FFE7039A506A916AD26A00F0E6F8DF
:103650000190039A106B516B926B00F0DFF80146FA
:10366000019808440299084404300290FFE7039847
:10367000006C20B9FFE70398806C58B1FFE7039A0C
:10368000106C516C926C00F0C9F802990844023039
:103690000290FFE70398C06C20B9FFE70398406DE4
:1036A00058B1FFE7039AD06C116D526D00F0B6F877
:1036B0000299084402300290FFE7029804B080BDEE
:1036C000F0B58FB08C468646189E179D169C1A98AA
:1036D0001998159814990E960D950C94CDF82CE028
:1036E000CDF828C08DF8272008938DF81F10ADF86D
:1036F0001C000B98069000200590049003900898F9
:10370000DDF868C00C990D9A0E9BEE46CEF800C00D
:1037100000F064F80490FFF74DFE0A99884204DD3A
:10372000FFE76FF00100039055E09DF814000321BE
:1037300061F31F108DF814009DF827109DF81400F8
:1037400001F0010100F0F70040EAC1008DF814001B
:103750009DF820109DF8140001F0030100F0F9001D
:1037600040EA41008DF814009DF81F109DF81400E8
:1037700001F0010100F0FE0008448DF814009DF8EE
:10378000141006A8029003F089FC06980499FFF72C
:10379000E1FD024602980699114406910C990D9A92
:1037A0000E9B03F0A5FC0898012806DBFFE7BDF897
:1037B0001C1006A803F082FCFFE7069819991A9AD4
:1037C000FCF7D2FC1A9906980844069006980B99C3
:1037D000401A0390FFE703980FB0F0BD80B586B0A4
:1037E000DDF820C00593049203910290002001901F
:1037F00003980499059A00F011F808990844019972
:103800000844023001900298012804DBFFE7019888
:1038100002300190FFE7019806B080BD80B584B00A
:1038200003920291019000200090019828B1FFE7D7
:103830000198FCF7CFFC009002E002980090FFE7AF
:10384000009804B080BD0000FFE7FEE780B5ADF54D
:103850008E6D0DF16F0000904FF480610191FCF7C7
:103860009CFC00201A9047F67C21C0F6000104A8B9
:1038700002905822FCF778FC00980199029A0123E3
:103880008DF82A3040F63043C2F2000307934FF020
:103890003C0CADF828C04FF0040C8DF818C003F1B3
:1038A000820CCDF850C003F582731793FFF7AEFD7D
:1038B0001A901A9850B9FFE749F22E20C0F600007E
:1038C00003F040FC01208DF86F042EE00020ADF8DD
:1038D0000E00FFE7BDF80E001A99884212D2FFE7EA
:1038E000BDF80E100DF16F00415C49F23D20C0F6AD
:1038F000000003F027FCFFE7BDF80E000130ADF833
:103900000E00E7E749F2DD10C0F6000003F01AFCF4
:10391000FFE701F0C5FABDF868100DF16F0001F086
:1039200057FB00208DF86F04FFE79DF86F040DF53D
:103930008E6D80BD2DE9F043ADF2544DCDF84C04B1
:10394000CDF8481412A809904FF480610891FCF753
:1039500024FC0020079011908DF843000F908DF803
:103960003B00ADF838000D900C900B900A90DDF8FC
:103970004C040A90DDF84804FCF72CFC0899024638
:10398000099811929DF843200F9B9DF83BC0BDF80C
:103990003840DDF84884DDF844900A9D0B9E0C9F6A
:1039A000EE46CEF81890CEF81480CEF81070CEF80F
:1039B0000C60CEF80850CEF80440CEF800C0FFF7F7
:1039C0007FFE0D900D98002804DCFFE701208DF8A4
:1039D000530408E0BDF8341012A801F0F9FA0020F1
:1039E0008DF85304FFE79DF853040DF2544DBDE8E4
:1039F000F08300007047000084B003900020029024
:103A000001900F2000900398C078C0B3FFE74EF6F6
:103A10000C50CEF200000068C043C0F302200290B8
:103A20000298C0F10400019000980299C8400090EB
:103A30000398407801998840029003988078009913
:103A400001400298084302900298000102900298F7
:103A5000039909784EF20042CEF20002885403988E
:103A6000027802F01F01012088404EF20011CEF2D0
:103A7000000141EAD20121F0030108600FE0039840
:103A8000027802F01F01012088404EF28011CEF230
:103A9000000141EAD20121F003010860FFE704B010
:103AA0007047000080B514200321FFF7D3FA80BDD2
:103AB00080B582B01420FFF7F1FB8DF807009DF868
:103AC0000700800728B9FFE714200321FFF708FC4F
:103AD000FFE702B080BD000080B58AB009900020E9
:103AE00002908DF8210008210846FFF7B3FA0299E9
:103AF0000D20FFF70DFC0E208021FFF7ABFA93207D
:103B00008DF80C0020208DF80D0069460DF11E0087
:103B100008600C20022203AB1946FFF7B3FA8DF8B8
:103B200023009DF8230060BBFFE700208DF82200F2
:103B3000FFE79DF82200032815DCFFE79DF82230FF
:103B400003A8C15C099AD1549DF82210415C9DF8EC
:103B5000210048408DF82100FFE79DF82200013048
:103B60008DF82200E5E79DF821009DF8222003A9A9
:103B7000895C884204D0FFE7FE208DF82300FFE730
:103B8000FFE70E208021FFF7ABFB9DF823000AB072
:103B900080BD000080B58AB08DF827008DF8261012
:103BA000089207939DF827008DF805009DF82600E0
:103BB0008DF8060000208DF81700FFE79DF817002C
:103BC00005280FDCFFE708989DF81710405C0DF101
:103BD000050211448870FFE79DF8170001308DF849
:103BE0001700EBE700208DF81700FFE79DF817009E
:103BF00003280FDCFFE707989DF81710405C0DF1D4
:103C0000050211440872FFE79DF8170001308DF896
:103C10001700EBE7694606A808600E200C220DF19C
:103C200005031946FFF72EFA8DF81B009DF81B00BF
:103C300038B9FFE70820FFF731FB0007002804D45C
:103C4000FFE7FE208DF81B00FFE79DF81B000AB080
:103C500080BD000080B5FFF71DFB00F039F880BD86
:103C600080B58AB08DF82700089108210846FFF733
:103C7000F1F90D200721FFF74BFB14200321FFF77B
:103C80002FFB9DF827008DF80A00694607A80860F9
:103C90000C2001220DF10A031946FFF7F3F98DF804
:103CA0001F009DF81F0070B9FFE7BDF81C00102829
:103CB00009D1FFE79DF80A00089908709DF80B00EC
:103CC00008994870FFE79DF81F000AB080BD00000A
:103CD00080B584B048F28011C4F223210091012004
:103CE0000190086002200390FDF762FC009A03989F
:103CF000002102911160FDF75BFC009A0199039885
:103D00001160FDF755FC01980F21FFF701FB0398A7
:103D1000FDF74EFC11203D21FFF7FAFA2D201E2160
:103D2000FFF7F6FA02992C20FFF7F2FA2A208D21EC
:103D3000FFF7EEFA2B203E21FFF7EAFA152040218B
:103D4000FFF7E6FAFFF7AEFE0398FDF731FCFFF749
:103D5000AFFE04B080BD000080B58AB0099093200A
:103D60008DF80E0070208DF80F0000208DF81400E3
:103D70008DF82200FFE79DF82200032818DCFFE7FA
:103D800009989DF82210405C0DF10E0211448870D4
:103D900009989DF82210415C9DF8140048408DF868
:103DA0001400FFE79DF8220001308DF82200E2E7C1
:103DB0000DF10E000290C21D0721FFF7F1F8082156
:103DC0000846FFF747F9029B694608A808600C20DF
:103DD00009221946FFF756F98DF823009DF82300B4
:103DE00048B9FFE7BDF82000182804D1FFE70020FC
:103DF0008DF8230003E0FE208DF82300FFE79DF8F7
:103E000023000AB080BD000080B58CB08DF82F0073
:103E10000A91A0208DF811009DF82F008DF8120056
:103E20000DF111000390821C0221FFF7B9F8039BEA
:103E3000694609A808600C2004221946FFF722F9F8
:103E40008DF827009DF8270060B9FFE7BDF8240032
:103E5000042807D1FFE79DF8110000F00F000A28A1
:103E600004D0FFE7FE208DF82700FFE79DF827002C
:103E700000283FD1FFE700208DF82300FFE79DF8E1
:103E800023000F280EDCFFE70A989DF82320805CB2
:103E90000DF111018854FFE79DF8230001308DF8E2
:103EA0002300ECE70DF11100029000F11002102147
:103EB000FFF776F8029B694609A808600C201222D9
:103EC0001946FFF7DFF88DF827009DF8270060B945
:103ED000FFE7BDF82400042807D1FFE79DF8110093
:103EE00000F00F000A2804D0FFE7FE208DF827001D
:103EF000FFE7FFE79DF827000CB080BD704700008A
:103F000082B001900020009041F20401C4F202014D
:103F100008680090009820F440400090019A0098B2
:103F2000104300900098086002B0704782B0019082
:103F30008DF803109DF8030048B1FFE7019A41F2A4
:103F40001401C4F2020108681043086008E0019AF5
:103F500041F21401C4F20201086890430860FFE7CF
:103F600002B0704782B001908DF803109DF80300F5
:103F700048B1FFE7019A41F21C01C4F2020108684E
:103F80001043086008E0019A41F21C01C4F20201EA
:103F9000086890430860FFE702B0704782B0019064
:103FA0008DF803109DF8030048B1FFE7019A41F234
:103FB0001801C4F2020108681043086008E0019A81
:103FC00041F21801C4F20201086890430860FFE75B
:103FD00002B0704786B005900020049003900290D4
:103FE000019041F20400C4F20200006800F00C00ED
:103FF00004900498009040B1FFE7009804280BD08B
:10400000FFE7009808280ED047E0059941F200200C
:10401000C0F27A00086047E0059941F20020C0F242
:104020007A00086040E041F20400C4F20200016836
:1040300001F470110391006800F48030029003993C
:10404000022000EB91400390029848B9FFE70398E3
:1040500040F60011C0F23D014843059908601BE09D
:1040600041F20400C4F2020000688003002809D570
:10407000FFE7039840F60011C0F23D01484305995F
:10408000086008E0039841F20021C0F27A01484339
:1040900005990860FFE7FFE706E0059941F2002077
:1040A000C0F27A000860FFE741F20400C4F20200A7
:1040B000016801F0F0010491049909090491049A3E
:1040C00047F6D821C0F600018A5C0192059B1A6868
:1040D000DDF804C022FA0CF25A60026802F4E062D1
:1040E0000492049A120A0492049A8A5C0192059B33
:1040F0005A68DDF804C022FA0CF29A60026802F4F1
:1041000060520492049AD20A0492049A895C019142
:10411000059A5168019BD940D160006800F4404085
:1041200004900498800B0490049947F6D420C0F6BC
:104130000000405C01900599C868019AB0FBF2F05C
:10414000086106B07047000080B584B004200121EA
:104150000291FFF723FF40F2C010C1F20300039069
:1041600040F60000C4F20100019003A9FDF7B8FD7C
:104170000198029A4FF48071FDF73CFF0198029A72
:104180008021FDF737FF0198029A4021FDF732FFA9
:1041900004B080BD80B588B040F6C070C2F20000A7
:1041A00000880146079140B1FFE7079801281AD01F
:1041B000FFE7079802282CD041E040F60000C4F247
:1041C000010005904FF480710022FDF713FF059860
:1041D000802101220692FDF70DFF0598069A4021E5
:1041E000FDF708FF2CE040F60000C4F20100039048
:1041F0004FF4807101220492FDF7FCFE03988021A8
:104200000022FDF7F7FE0398049A4021FDF7F2FE25
:1042100016E040F60000C4F2010002904FF48071F5
:1042200001220192FDF7E6FE019A02988021FDF736
:10423000E1FE029840210022FDF7DCFE00E0FFE7EE
:1042400040F6C071C2F20001088801300880088879
:104250004AF6AB22CAF6AA22A0FB022323F00102EF
:1042600002EB5302801A088008B080BD80B588B088
:104270008020009001210691FFF790FE009806999A
:10428000FFF78CFE00980699FFF788FE00980699C4
:10429000FFF784FE00980699FFF780FE0820019042
:1042A000ADF81C00102003908DF81F0003208DF83E
:1042B0001E0041F60040C4F20100059007A90491D8
:1042C000FDF70EFD01990598FDF78AFE0499059802
:1042D0000222ADF81C20042202928DF81F20FDF767
:1042E000FFFC029B039A04990598ADF81C308DF8E9
:1042F0001F20FDF7F5FC039A04990598ADF81C20E2
:104300008DF81F20FDF7ECFC03990598FDF768FE7A
:10431000039A04990598069BADF81C308DF81F2070
:10432000FDF7DEFC05980699FDF75AFE08B080BD42
:104330007047000080B500F001F880BD84B0002017
:104340000390029041F20001C4F20201086840F4B7
:1043500080300860FFE741F20000C4F2020000680C
:1043600000F400300290039801300390FFE70299B7
:104370000020019039B9FFE70398B0F5A06018BF9D
:1043800001200190FFE70198C0070028E3D1FFE773
:1043900041F20000C4F2020000688003002803D547
:1043A000FFE70120029002E000200290FFE7029860
:1043B000012851D1FFE742F20001C4F2020108686E
:1043C00040F010000860086820F0030008600868EA
:1043D00040F00200086041F20401C4F202010091C1
:1043E0000868086008680860086840F48060086031
:1043F000086820F47C100860086840F4E810086041
:1044000041F20001C4F20201086840F080700860C7
:10441000FFE741F20000C4F20200006880010028BA
:1044200001D4FFE7F5E741F20401C4F20201086894
:1044300020F003000860086840F002000860FFE711
:1044400041F20400C4F20200006800F00C000828E9
:1044500001D0FFE7F4E700E0FFE704B07047000099
:1044600080B582B000208DF806008DF80700FFE7C8
:104470009DF8070007282EDCFFE741F60040C4F254
:10448000010000900821FDF7A1FD0A20FDF7A0F82A
:1044900000989DF8061049008DF806100221FDF7DE
:1044A00061FD38B1FFE79DF8060040F001008DF88E
:1044B0000600FFE741F60040C4F201000821FDF7C5
:1044C0008FFD0A20FDF784F8FFE79DF80700013013
:1044D0008DF80700CCE79DF8060002B080BD000013
:1044E00080B582B08DF8070000208DF80600FFE748
:1044F0009DF8060007283ADCFFE741F60040C4F2C9
:1045000001000821FDF762FD0A20FDF761F89DF822
:1045100007000006002808D5FFE741F60040C4F276
:1045200001000421FDF75CFD07E041F60040C4F204
:1045300001000421FDF74AFDFFE79DF80700400058
:104540008DF807000A200090FDF742F841F6004080
:10455000C4F201000821FDF743FD0098FDF738F88B
:10456000FFE79DF8060001308DF80600C0E702B0B5
:1045700080BD000080B582B0009000980138B0F195
:10458000807F03D3FFE70120019019E000980138F4
:104590004EF21401CEF2000108604FF0FF300F21FF
:1045A00000F096FD4EF21801CEF2000100200860E6
:1045B0004EF21002CEF20002072111600190FFE7D7
:1045C000019802B080BD000080B586B041F2044180
:1045D000C2F2000108680130086041F2FC31C2F209
:1045E000000108680130086041F2EC31C2F20001BC
:1045F00008680130086041F2DC31C2F2000108684D
:104600000130086040F6C471C2F200010868013050
:10461000086041F2E430C2F200000168013101603B
:104620000068B0F5FA7F40F2AF80FFE741F2E0307A
:10463000C2F20000008801460591062800F29C8025
:104640000599DFE801F004051B31475D730094E034
:1046500049F2F800C0F6000069460860182076218B
:104660004FF6FF7247F67C53FDF706F841F2E03152
:10467000C2F200010888013008807EE049F2E400BF
:10468000C0F6000069460860182076214FF6FF72D8
:1046900047F67C53FCF7F0FF41F2E031C2F2000133
:1046A00008880130088068E049F2CF00C0F60000B9
:1046B00069460860182076214FF6FF7247F67C5352
:1046C000FCF7DAFF41F2E031C2F200010888013064
:1046D000088052E049F2B900C0F60000694608605F
:1046E000182076214FF6FF7247F67C53FCF7C4FF83
:1046F00041F2E031C2F200010888013008803CE05C
:1047000049F2A200C0F60000694608601820762130
:104710004FF6FF7247F67C53FCF7AEFF41F2E031F3
:10472000C2F2000108880130088026E049F28A00C0
:10473000C0F60000694608601820019076210291B9
:104740004FF6FF72039247F67C530493FCF794FFF5
:1047500001980299039A049B49F2720CC0F6000C6E
:10476000EE46CEF800C0FCF787FF41F2E031C2F21E
:1047700000010120088000E0FFE741F2E431C2F2CD
:10478000000100200860FFE706B080BD80B541F25F
:104790000002C4F20202106840F00100106041F211
:1047A0000401C4F2020108680023CFF6FF03184099
:1047B000086010684FF6FF73CFF6F663184010607C
:1047C000106820F480201060086820F4FE00086063
:1047D00041F20801C4F202014FF41F000860FFF724
:1047E000A9FD4EF60851CEF200014FF000600860BE
:1047F00080BD000080B58CB044F20400012104911A
:10480000FFF7CCFB40F20020C1F603000B9040F60E
:104810000000C4F2010001900BA90291FDF760FABB
:104820000198029904228DF82F204FF48062ADF890
:104830002C20FDF755FA002005900A904FF44021F6
:10484000099108904FF4E130079043F60000C4F25C
:104850000100039007A900F0E7F90398049900F01C
:1048600009F90398049A40F2255100F093F905994B
:104870002520069000F04EFC069800F011FC0CB0CC
:1048800080BD000080B582B00020ADF80600FFE7D3
:1048900043F60000C4F2010040F2255100F022F975
:1048A00001283AD1FFE743F60000C4F2010000F00E
:1048B00069FAADF80600BDF80600313801460091EE
:1048C000032828D80099DFE801F0020B141D41F2FB
:1048D0000000C4F2010001221146FDF78BFB1BE032
:1048E00041F20000C4F2010001210022FDF782FB29
:1048F00012E040F60000C4F2010040210022FDF762
:1049000079FB09E040F60000C4F2010040210122D9
:10491000FDF770FB00E0FFE7BAE702B080BD0000E2
:1049200080B582B000208DF8070044F60000C4F284
:10493000000040F2255100F0D5F801283BD1FFE7F7
:1049400044F60000C4F2000000F01CFA8DF80700E5
:104950009DF8070020B9FFE730208DF80700FFE73A
:104960009DF8070043F60401C4F2010108809DF898
:10497000070041F20C41C2F20001B1F8D027531CEC
:10498000A1F8D0378854B1F8D03744F6D350C1F2EB
:104990006200A3FB0020C0094FF4FA6200FB123052
:1049A000A1F8D00744F60000C4F2000040F22551FF
:1049B00000F03EF8FFE744F60000C4F2000040F2C9
:1049C000244100F08FF8012830D1FFE741F20C407C
:1049D000C2F20000012180F8D2170078302816D1E9
:1049E000FFE741F20C40C2F2000049F2ED11C0F6BF
:1049F0000001FBF7DDFB024640F6CE70C2F200007C
:104A000049F2D221C0F6000102F0ACFBFFE744F608
:104A10000000C4F2000000888DF8070044F604008E
:104A2000C4F2000000888DF80700FFE702B080BDE7
:104A300083B00290ADF806100020ADF80400ADF888
:104A40000200BDF8060040F66A11884201D1FFE776
:104A5000FFE79DF80700ADF80400BDF80410012041
:104A60008840ADF80200BDF80200C04302990880FA
:104A700003B0704782B001908DF803109DF80300D9
:104A800030B1FFE70199888940F40050888105E042
:104A90000199888920F400508881FFE702B07047AF
:104AA00082B00190ADF8021000208DF80100BDF831
:104AB0000200B0F5007F01D1FFE7FFE70198008811
:104AC000BDF802100840000420B1FFE701208DF876
:104AD000010003E000208DF80100FFE79DF80100D0
:104AE00002B0704786B00590ADF812100020039018
:104AF000029001908DF80300BDF8120040F66A1193
:104B0000884201D1FFE7FFE79DF8120040090190BC
:104B1000BDF8120000F01F000290029901208840A9
:104B200002900198012806D1FFE705988189029833
:104B30000840029010E00198022806D1FFE705988E
:104B4000018A02980840029005E00598818A02983F
:104B500008400290FFE7FFE79DF8130003900399D8
:104B6000012088400390059801880398084003902D
:104B7000029838B1FFE7039820B1FFE701208DF8D4
:104B8000030003E000208DF80300FFE79DF8030019
:104B900006B0704786B00590ADF812108DF8112060
:104BA00000200390029001900090BDF8120040F6A2
:104BB0006A11884201D1FFE7FFE7059800909DF850
:104BC000120040090390BDF8120000F01F0002908F
:104BD00002990120884001900398012804D1FFE741
:104BE00000980C3000900CE00398022804D1FFE7F5
:104BF00000981030009003E0009814300090FFE718
:104C0000FFE79DF8110030B1FFE7019A00990868AD
:104C10001043086005E0019A009908689043086015
:104C2000FFE706B07047000080B58CB00B900A918A
:104C30000020099008900790069005900A988089B6
:104C400008B1FFE7FFE70B9805900B98008A0990E1
:104C500009984CF6FF71084009900A98C188099894
:104C60000843099009980B9908820B98808909904C
:104C700009984EF6F311084009900A9988880A8924
:104C800010434989014309980843099009980B99F1
:104C900088810B98808A099009984FF6FF41084057
:104CA00009900A98818909980843099009980B99F5
:104CB00088826846FFF78EF9059843F60001C4F232
:104CC0000101884203D1FFE70398089002E00298AF
:104CD0000890FFE70B988089000400280AD5FFE7B9
:104CE0000898192148430A9909684900B0FBF1F076
:104CF000079009E00898192148430A990968890032
:104D0000B0FBF1F00790FFE7079848F21F51C5F29A
:104D1000EB11A0FB01016FF00F0000EA51000990B8
:104D2000079A09980009642100FB112006900B984E
:104D300080890004002810D5FFE70699322000EB97
:104D4000C10048F21F51C5F2EB11A0FB0110C0F3E6
:104D500042110998084309900FE00699322000EBB0
:104D6000011048F21F51C5F2EB11A0FB0110C0F376
:104D70004311099808430990FFE709980B990881A6
:104D80000CB080BD81B00090009880886FF35F20E8
:104D900001B0704782B00190ADF80210BDF802007A
:104DA0006FF35F200199888002B07047B0B5C8B03A
:104DB00008A804904FF48071FBF7EFF9049841F2D2
:104DC000DA31C2F200010B784A7840F6C271C2F2C1
:104DD0000001098841F2D03CC2F2000CBCF802E0AC
:104DE000BCF8044040F20E0CC2F2000CBCF80050BB
:104DF000EC46CCF80C50CCF80840CCF804E0CCF8E9
:104E0000001049F27031C0F6000102F0ABF90499CC
:104E100040F63040C2F2000000F50270FEF78AFD55
:104E200048B0B0BDFFE7FEE780B582B08DF807005F
:104E3000FFE744F60000C4F200004021FFF730FE17
:104E400008B9FFE7F5E79DF8071044F60000C4F243
:104E50000000FFF79FFF02B080BD000080B582B068
:104E60000190FFE701980078B8B1FFE7FFE744F64B
:104E70000000C4F200004021FFF712FE08B9FFE76E
:104E8000F5E70198017844F60000C4F20000FFF74E
:104E900081FF019801300190E4E702B080BD00007D
:104EA00080B582B041F20C40C2F2000001904FF494
:104EB000FA61FBF772F90199002081F8D207A1F895
:104EC000D00702B080BD000080B582B049F22A1040
:104ED000C0F600000090FFF7C1FF4FF4FA70019098
:104EE000FCF74EFB0098FFF7B9FF0198FCF748FB71
:104EF00002B080BD80B5A6B024902391ADF88A2081
:104F000000208DF889000DF1090001908021FBF748
:104F100044F9FFF7D9FF0198249A239BBDF88A1022
:104F2000EC46CCF8001049F27811C0F6000102F00E
:104F300019F9019849F2E511C0F6000142F2107228
:104F4000FCF7C6FC38B9FFE749F29310C0F6000041
:104F500002F0F8F809E049F2CF10C0F6000002F0C4
:104F6000F1F801208DF897002DE049F23010C0F6DD
:104F7000000049F2E211C0F600014FF47A72FCF72A
:104F8000A7FC20B1FFE701208DF897001BE049F254
:104F90006610C0F6000049F2E011C0F600014FF4BF
:104FA000FA72FCF795FC20B1FFE701208DF897001D
:104FB00009E049F24D10C0F6000002F0C3F80020ED
:104FC0008DF89700FFE79DF8970026B080BD0000A0
:104FD00080B584B00390ADF80A1000200190ADF8C0
:104FE0000800FFF75DFF0198ADF80800FFE7BDF886
:104FF0000800BDF80A1088420DDAFFE70398BDF8F3
:105000000810405CFFF710FFFFE7BDF80800013013
:10501000ADF80800EBE704B080BD000080B549F2B0
:105020007310C0F6000049F2E211C0F6000142F22E
:105030001072FCF74DFC88BBFFE749F2B210C0F6D6
:10504000000002F07FF849F23F10C0F6000049F27C
:10505000E211C0F6000142F21072FCF739FCE0B92F
:10506000FFE749F2A410C0F6000002F06BF849F225
:105070000B10C0F6000049F2E211C0F6000142F246
:105080001072FCF725FC38B9FFE749F2C210C0F6F0
:10509000000002F057F8FFE7FFE7FFE780BD0000E0
:1050A00081B08DF803009DF9030000280ED4FFE7BE
:1050B0009DF9031001F01F02012090404A094EF2B1
:1050C0000011CEF2000141F82200FFE701B0704765
:1050D00082B08DF8070000919DF9070000280AD4DE
:1050E000FFE7009800019DF907104EF20042CEF252
:1050F000000288540BE0009800019DF8071001F0B1
:105100000F014EF61452CEF200028854FFE702B0AF
:105110007047000082B08DF8070000919DF90700EC
:1051200000280AD4FFE7009800019DF907104EF20D
:105130000042CEF2000288540BE0009800019DF876
:10514000071001F00F014EF61452CEF200028854FF
:10515000FFE702B07047000080B582B00190009177
:10516000BDF8041043F60000C4F20100FFF712FE80
:10517000FFE743F60000C4F201008021FFF790FC36
:1051800008B9FFE7F5E7019802B080BD80B5A4B08B
:10519000002011902390FCF745FFFCF7E3F9FDF7A1
:1051A0000FFEFBF709FEFEF7CFFFFDF701F8FFF753
:1051B00021FBFDF76FFA4FF6FF700E90FDF7CCF86C
:1051C00041F2E031C2F200010D91012010900880FF
:1051D000FEF740FDFBF7EAFAFCF704FB4FF47A70A8
:1051E0000C90FCF7CDF9FFF719FF0C98FCF7C8F904
:1051F000FBF7DEFC0C98FCF7C3F9FEF727FB0D9AD2
:1052000011990E981180FDF7A7F8FDF709FE109A85
:1052100041F60000C4F201000F900421FCF7EAFE01
:105220000F98109A119941F2FA33C2F200031970E3
:105230000821FCF7DFFE0F98109A1021FCF7DAFE28
:105240000F98109A2021FCF7D5FE1099119A41F27F
:105250000000C4F20100FCF7CDFE109811998DF802
:105260008B10ADF888000DF14E003A21FAF795FF4A
:1052700011988DF84C00ADF84A00FFE74FF6FF702B
:10528000FDF76AF8FBF774FDFBF7A4FF40F2380066
:10529000C2F200000078FBF739FFFFE741F2DC3093
:1052A000C2F200000068B0F57A7F36D9FFE7FCF75C
:1052B00083F8FBF711FB41F2DA30C2F200000A90EA
:1052C0000178427840F6C270C2F20000099003886B
:1052D00049F21C00C0F6000001F034FFFFF766FD44
:1052E0000998028849F26501C0F600010DF14E00EF
:1052F0000B9001F037FF0A990B981D300A784B7814
:1053000049F25301C0F6000101F02CFF41F2DC31FB
:10531000C2F2000100200860FFE741F2EC30C2F267
:10532000000000680B28C0F08980FFE7FCF75EFFF3
:105330008DF88B009DF88B00002800F07880FFE747
:105340009DF88B00013801460891062838D8089945
:10535000DFE801F004360C361436250041F2CE3079
:10536000C2F200000078FCF7AFFB2AE041F2CE3039
:10537000C2F200000078FCF74FFC22E041F2CE3090
:10538000C2F200000078012808DBFFE741F2CE31CD
:10539000C2F20001087801380870FFE711E041F21D
:1053A000CE30C2F200000078022808DCFFE741F2AC
:1053B000CE31C2F20001087801300870FFE700E04A
:1053C000FFE741F2CE30C2F20000007801280DDC88
:1053D000FFE740F23800C2F2000007900078FBF7C8
:1053E00095FE07980078FBF7EBFD1FE040F23800D0
:1053F000C2F200000078FCF7B7FB48B9FFE741F6BE
:105400000000C4F2010020210022FCF7F3FD0CE0B3
:1054100041F60000C4F2010020210122FCF7EAFD60
:105420004FF49670FCF7C4F828E7FFE7FFE741F276
:10543000EC31C2F2000100200860FFE740F6C470C2
:10544000C2F200000068B0F57A7F40F2B180FFE759
:1054500041F2CE30C2F2000000780228C0F2A180F2
:10546000FFE741F60000C4F201002021FCF794FDA3
:10547000002840F08380FFE741F2D030C2F2000004
:1054800006900121418081880131818040F20C0128
:10549000C2F200010B88C28802EB4302C2800A8874
:1054A000018911440181828849F26E01C0F6000130
:1054B00001910DF14A00029001F054FE02986946F4
:1054C000086046200590F0214FF6FF7203924FF4DA
:1054D00078430493FCF7D0F801990298069AD28891
:1054E00001F040FE0299039A049B0598EC46CCF823
:1054F00000104FF48771FCF7BFF801990298069AE3
:10550000128901F02FFE0299039A049B0598EC463C
:10551000CCF800104FF49671FCF7AEF8069941F202
:105520000840C2F200000068C988401A28BBFFE7A3
:1055300049F23900C0F6000069460860182076215B
:105540004FF6FF724FF47843FCF796F8FDF7C8FC6E
:1055500040F20E01C2F20001088841F20842C2F294
:1055600000021268801A088041F60000C4F20100AF
:1055700020210122FCF73EFD80E611E041F2D0310E
:10558000C2F20001002048808880C880088141F66E
:105590000000C4F2010020210122FCF72BFD6DE682
:1055A000FFE740F6C471C2F2000100200860FFE787
:1055B00041F2FC30C2F200000068B0F57A7F0ED9EB
:1055C000FFE7BDF8880018B1FFE7FEF7E3FDFFE74E
:1055D00041F2FC31C2F2000100200860FFE75DE605
:1055E00010B588B08C4686460C980B990A9CCDF86D
:1055F0001CE0CDF818C0ADF81620ADF81430ADF8A9
:105600001210ADF8100000200290FFE70298BDF8DC
:10561000121088424EDAFFE700200090FFE7009862
:10562000BDF81010B0EBD10F3FDAFFE70A98411C2C
:105630000A910078019000200390FFE70398072863
:105640002EDCFFE79DF804000006002810D5FFE7D8
:1056500007980399009A01EBC20108440699029A3F
:105660001144BDF8142089B280B2FCF70DFF0FE0A1
:1056700007980399009A01EBC20108440699029A1F
:105680001144BDF8162089B280B2FCF7FDFEFFE799
:10569000019840000190FFE7039801300390CDE7A7
:1056A000FFE7009801300090B9E7FFE7029801306A
:1056B0000290ABE708B010BD82B08DF807009DF8EE
:1056C000070000F00F008DF807009DF8070009287B
:1056D00005DCFFE79DF807003030009004E09DF8FE
:1056E000070057300090FFE7009840B202B07047C3
:1056F00080B5C8B0DDF828C14790469145924493E3
:10570000479830B1FFE7459818B1FFE7449808B9CA
:10571000FFE77EE04A98412801DBFFE779E01DA81A
:10572000059040210491FAF738FD04990DA80690E0
:10573000FAF733FD059844994A9AFAF715FD069849
:1057400044994A9AFAF710FD00200790FFE707985E
:105750003F2811DCFFE7079A1DA9885C80F036001E
:105760008854079A0DA9885C80F05C008854FFE794
:10577000079801300790EAE72DA8029000F0F2F8B0
:10578000029801F0E9FB02981DA94022019201F064
:105790000BFC02984799469A01F006FC029808A96A
:1057A000039100F039F8029800F0DCF8029801F05B
:1057B000D3FB019A02980DA901F0F6FB0298039918
:1057C000142201F0F1FB0298039900F025F8002063
:1057D0000790FFE7079813281BDCFFE7079908A845
:1057E0000090405C0009FFF767FF01460098459A6A
:1057F000079B02F813100799405CFFF75DFF45997E
:10580000079A01EB42014870FFE7079801300790C3
:10581000E0E748B080BD000080B58AB009900891EB
:10582000099908684968400F40EAC1000590099845
:105830000068C00004909DF817008DF80800BDF8BE
:1058400016008DF809000598000A8DF80A000598E1
:105850008DF80B009DF813008DF80C00BDF81200B8
:105860008DF80D000498000A8DF80E0004988DF84C
:105870000F000998006800F03F000790079837284C
:1058800005D8FFE70798C0F13800019004E00798B9
:10589000C0F178000190FFE7019806900998069AF8
:1058A00048F6DC71C0F6000101F07EFB099802A900
:1058B000082201F079FB0998C07A089908700998C4
:1058C00040890899487009988068000A089988708A
:1058D000099880680899C8700998C07B0899087170
:1058E0000998C089089948710998C068000A089900
:1058F00088710998C0680899C8710998C07C08998E
:1059000008720998408A0899487209980069000A43
:1059100008998872099800690899C8720998C07D29
:10592000089908730998C08A0899487309984069CA
:10593000000A08998873099840690899C8730998FA
:10594000C07E089908740998408B08994874099892
:105950008069000A08998874099880690899C87450
:105960000AB080BD80B582B0019001985C21FAF741
:1059700014FC02B080BD000080B598B0179016915D
:105980001698006800BA05901698406800BA06900C
:105990001698806800BA07901698C06800BA0890F8
:1059A0001698006900BA09901698406900BA0A90E2
:1059B0001698806900BA0B901698C06900BA0C90CE
:1059C0001698006A00BA0D901698406A00BA0E90B8
:1059D0001698806A00BA0F901698C06A00BA1090A4
:1059E0001698006B00BA11901698406B00BA12908E
:1059F0001698806B00BA13901698C06B00BA14907A
:105A00001798806804901798C068039017980069E9
:105A10000290179840690190179880690090049946
:105A20000198039A029B43401A40504000EBF160FA
:105A3000059908440099084447F69911C5F6822152
:105A40000844009003984FEAB0000390009A02982F
:105A5000049BDDF80CC08CEA000C03EA0C035840F0
:105A600000EBF260069A1044019A10440844019039
:105A700004984FEAB0000490019A0398009BDDF867
:105A800010C08CEA000C03EA0C03584000EBF260F3
:105A9000079A1044029A10440844029000984FEA72
:105AA000B0000090029A0498019BDDF800C08CEAD7
:105AB000000C03EA0C03584000EBF260089A104413
:105AC000039A10440844039001984FEAB0000190F3
:105AD000039A0098029BDDF804C08CEA000C03EAEC
